8=FIX.4.2|9=67|35=A|34=1|49=SERVER|52=20151110-04:41:27.663|56=CLIENT|98=0|108=30|10=147|8=FIX.4.2|9=129|35=8|34=2|49=SERVER|52=20151110-04:41:33.760|56=CLIENT|6=1.235|14=100|17=1|20=0|37=1|39=2|44=1.234|54=1|55=EUR/USD|150=2|151=100|10=042|8=FIX.4.2|9=67|35=A|34=3|49=SERVER|52=20151110-04:45:59.617|56=CLIENT|98=0|108=30|10=157|8=FIX.4.2|9=129|35=8|34=4|49=SERVER|52=20151110-04:46:05.614|56=CLIENT|6=1.235|14=100|17=1|20=0|37=1|39=2|44=1.234|54=1|55=EUR/USD|150=2|151=100|10=046|8=FIX.4.2|9=55|35=0|34=5|49=SERVER|52=20151110-04:46:35.933|56=CLIENT|10=110|8=FIX.4.2|9=55|35=0|34=6|49=SERVER|52=20151110-04:47:05.934|56=CLIENT|10=110|8=FIX.4.2|9=67|35=A|34=7|49=SERVER|52=20151110-04:47:31.931|56=CLIENT|98=0|108=30|10=152|8=FIX.4.2|9=129|35=8|34=8|49=SERVER|52=20151110-04:47:37.944|56=CLIENT|6=1.235|14=100|17=1|20=0|37=1|39=2|44=1.234|54=1|55=EUR/USD|150=2|151=100|10=062|8=FIX.4.2|9=55|35=0|34=9|49=SERVER|52=20151110-04:48:07.939|56=CLIENT|10=121|8=FIX.4.2|9=56|35=0|34=10|49=SERVER|52=20151110-04:48:37.940|56=CLIENT|10=157|8=FIX.4.2|9=56|35=0|34=11|49=SERVER|52=20151110-04:49:07.941|56=CLIENT|10=157|8=FIX.4.2|9=56|35=0|34=12|49=SERVER|52=20151110-04:49:37.941|56=CLIENT|10=161|8=FIX.4.2|9=56|35=0|34=13|49=SERVER|52=20151110-04:50:07.944|56=CLIENT|10=154|8=FIX.4.2|9=56|35=0|34=14|49=SERVER|52=20151110-04:50:37.945|56=CLIENT|10=159|8=FIX.4.2|9=56|35=0|34=15|49=SERVER|52=20151110-04:51:07.944|56=CLIENT|10=157|8=FIX.4.2|9=56|35=0|34=16|49=SERVER|52=20151110-04:51:37.946|56=CLIENT|10=163|8=FIX.4.2|9=56|35=0|34=17|49=SERVER|52=20151110-04:52:07.949|56=CLIENT|10=165|8=FIX.4.2|9=56|35=0|34=18|49=SERVER|52=20151110-04:52:37.949|56=CLIENT|10=169|