8=FIX.4.2|9=67|35=A|34=1|49=CLIENT|52=20151116-16:32:46.221|56=SERVER|98=0|108=30|10=147|8=FIX.4.2|9=130|35=D|34=2|49=CLIENT|52=20151116-16:32:49.222|56=SERVER|11=1|21=1|38=12|40=1|44=12|54=1|55=HH|60=20151116-16:32:49.190|64=20191212|10=085|8=FIX.4.2|9=67|35=A|34=3|49=CLIENT|52=20151116-16:33:58.703|56=SERVER|98=0|108=30|10=158|8=FIX.4.2|9=64|35=2|34=4|49=CLIENT|52=20151116-16:33:58.771|56=SERVER|7=2|16=0|10=245|8=FIX.4.2|9=130|35=D|34=5|49=CLIENT|52=20151116-16:34:01.687|56=SERVER|11=1|21=1|38=12|40=2|44=12|54=1|55=HH|60=20151116-16:34:01.681|64=20191212|10=089|8=FIX.4.2|9=67|35=A|34=6|49=CLIENT|52=20151116-16:35:01.790|56=SERVER|98=0|108=30|10=157|8=FIX.4.2|9=64|35=2|34=7|49=CLIENT|52=20151116-16:35:01.797|56=SERVER|7=4|16=0|10=248|8=FIX.4.2|9=137|35=D|34=8|49=CLIENT|52=20151116-16:35:04.788|56=SERVER|11=2|21=1|38=11|40=P|44=11|54=1|55=HH|60=20151116-16:35:04.787|64=20191111|211=12|10=196|8=FIX.4.2|9=67|35=A|34=9|49=CLIENT|52=20151116-18:04:16.945|56=SERVER|98=0|108=30|10=166|8=FIX.4.2|9=65|35=2|34=10|49=CLIENT|52=20151116-18:04:16.982|56=SERVER|7=6|16=0|10=037|8=FIX.4.2|9=118|35=j|34=11|49=CLIENT|52=20151116-18:04:17.024|56=SERVER|45=6|58=Conditionally Required Field Missing (38)|372=8|380=5|10=061|8=FIX.4.2|9=131|35=D|34=12|49=CLIENT|52=20151116-18:04:19.934|56=SERVER|11=1|21=1|38=50|40=1|44=50|54=1|55=HH|60=20151116-18:04:19.929|64=12121212|10=149|8=FIX.4.2|9=68|35=A|34=13|49=CLIENT|52=20151116-18:05:34.870|56=SERVER|98=0|108=30|10=208|8=FIX.4.2|9=65|35=2|34=14|49=CLIENT|52=20151116-18:05:34.910|56=SERVER|7=8|16=0|10=035|8=FIX.4.2|9=131|35=D|34=15|49=CLIENT|52=20151116-18:05:37.859|56=SERVER|11=1|21=1|38=50|40=1|44=50|54=1|55=HH|60=20151116-18:05:37.852|64=12121212|10=155|8=FIX.4.2|9=68|35=A|34=16|49=CLIENT|52=20151116-18:51:52.949|56=SERVER|98=0|108=30|10=219|8=FIX.4.2|9=66|35=2|34=17|49=CLIENT|52=20151116-18:51:53.006|56=SERVER|7=12|16=0|10=080|8=FIX.4.2|9=131|35=D|34=18|49=CLIENT|52=20151116-18:51:55.931|56=SERVER|11=1|21=1|38=50|40=2|44=50|54=1|55=HH|60=20151116-18:51:55.914|64=12121212|10=151|8=FIX.4.2|9=68|35=A|34=19|49=CLIENT|52=20151116-18:54:30.104|56=SERVER|98=0|108=30|10=204|8=FIX.4.2|9=131|35=D|34=20|49=CLIENT|52=20151116-18:54:33.108|56=SERVER|11=1|21=1|38=50|40=2|44=50|54=1|55=HH|60=20151116-18:54:33.091|64=12121212|10=134|8=FIX.4.2|9=68|35=A|34=21|49=CLIENT|52=20151116-18:55:29.943|56=SERVER|98=0|108=30|10=217|8=FIX.4.2|9=132|35=D|34=22|49=CLIENT|52=20151116-18:55:32.942|56=SERVER|11=2|21=1|38=100|40=2|44=50|54=1|55=HH|60=20151116-18:55:32.942|64=12121212|10=193|8=FIX.4.2|9=68|35=A|34=23|49=CLIENT|52=20151116-18:56:31.635|56=SERVER|98=0|108=30|10=211|8=FIX.4.2|9=131|35=D|34=24|49=CLIENT|52=20151116-18:56:34.639|56=SERVER|11=1|21=1|38=50|40=2|44=50|54=1|55=HH|60=20151116-18:56:34.618|64=20101212|10=155|8=FIX.4.2|9=68|35=A|34=25|49=CLIENT|52=20151116-18:56:55.880|56=SERVER|98=0|108=30|10=221|8=FIX.4.2|9=131|35=D|34=26|49=CLIENT|52=20151116-18:56:58.879|56=SERVER|11=2|21=1|38=12|40=1|44=12|54=1|55=HH|60=20151116-18:56:58.879|64=12121212|10=183|8=FIX.4.2|9=68|35=A|34=27|49=CLIENT|52=20151116-18:58:51.353|56=SERVER|98=0|108=30|10=216|8=FIX.4.2|9=66|35=2|34=28|49=CLIENT|52=20151116-18:58:51.380|56=SERVER|7=20|16=0|10=091|8=FIX.4.2|9=131|35=D|34=29|49=CLIENT|52=20151116-18:58:54.343|56=SERVER|11=1|21=1|38=50|40=1|44=50|54=1|55=HP|60=20151116-18:58:54.337|64=20191212|10=174|8=FIX.4.2|9=68|35=A|34=30|49=CLIENT|52=20151116-19:08:54.539|56=SERVER|98=0|108=30|10=215|8=FIX.4.2|9=66|35=2|34=31|49=CLIENT|52=20151116-19:08:54.588|56=SERVER|7=27|16=0|10=101|8=FIX.4.2|9=131|35=D|34=32|49=CLIENT|52=20151116-19:08:57.531|56=SERVER|11=1|21=1|38=50|40=1|44=50|54=1|55=HH|60=20151116-19:08:57.524|64=20191212|10=155|8=FIX.4.2|9=68|35=A|34=33|49=CLIENT|52=20151116-19:10:54.413|56=SERVER|98=0|108=30|10=202|8=FIX.4.2|9=66|35=2|34=34|49=CLIENT|52=20151116-19:10:54.428|56=SERVER|7=31|16=0|10=085|8=FIX.4.2|9=131|35=D|34=35|49=CLIENT|52=20151116-19:10:57.412|56=SERVER|11=2|21=1|38=50|40=2|44=50|54=1|55=HH|60=20151116-19:10:57.411|64=20191212|10=139|8=FIX.4.2|9=68|35=A|34=36|49=CLIENT|52=20151116-19:12:45.094|56=SERVER|98=0|108=30|10=212|8=FIX.4.2|9=131|35=D|34=37|49=CLIENT|52=20151116-19:12:48.095|56=SERVER|11=1|21=1|38=50|40=2|44=50|54=1|55=HH|60=20151116-19:12:48.077|64=20191212|10=159|8=FIX.4.2|9=68|35=A|34=38|49=CLIENT|52=20151116-19:14:40.867|56=SERVER|98=0|108=30|10=219|8=FIX.4.2|9=66|35=2|34=39|49=CLIENT|52=20151116-19:14:40.902|56=SERVER|7=36|16=0|10=091|8=FIX.4.2|9=131|35=D|34=40|49=CLIENT|52=20151116-19:14:43.864|56=SERVER|11=2|21=1|38=30|40=2|44=50|54=1|55=HH|60=20151116-19:14:43.864|64=20191212|10=154|8=FIX.4.2|9=68|35=A|34=41|49=CLIENT|52=20151116-19:20:34.418|56=SERVER|98=0|108=30|10=205|8=FIX.4.2|9=66|35=2|34=42|49=CLIENT|52=20151116-19:20:34.471|56=SERVER|7=39|16=0|10=089|8=FIX.4.2|9=134|35=D|34=43|49=CLIENT|52=20151116-19:20:37.408|56=SERVER|11=1|21=1|38=50|40=2|44=49.99|54=1|55=HH|60=20151116-19:20:37.401|64=20101212|10=045|8=FIX.4.2|9=68|35=A|34=44|49=CLIENT|52=20151116-19:22:45.662|56=SERVER|98=0|108=30|10=213|8=FIX.4.2|9=66|35=2|34=45|49=CLIENT|52=20151116-19:22:45.691|56=SERVER|7=44|16=0|10=096|8=FIX.4.2|9=134|35=D|34=46|49=CLIENT|52=20151116-19:22:48.662|56=SERVER|11=2|21=1|38=50|40=2|44=49.99|54=1|55=HH|60=20151116-19:22:48.662|64=20101212|10=068|8=FIX.4.2|9=68|35=A|34=47|49=CLIENT|52=20151116-19:23:21.742|56=SERVER|98=0|108=30|10=210|8=FIX.4.2|9=66|35=2|34=48|49=CLIENT|52=20151116-19:23:21.749|56=SERVER|7=47|16=0|10=101|8=FIX.4.2|9=133|35=D|34=49|49=CLIENT|52=20151116-19:23:24.741|56=SERVER|11=3|21=1|38=40|40=2|44=49.9|54=1|55=HH|60=20151116-19:23:24.740|64=20121212|10=000|8=FIX.4.2|9=68|35=A|34=50|49=CLIENT|52=20151116-19:23:54.508|56=SERVER|98=0|108=30|10=210|8=FIX.4.2|9=66|35=2|34=51|49=CLIENT|52=20151116-19:23:54.515|56=SERVER|7=52|16=0|10=088|8=FIX.4.2|9=131|35=D|34=52|49=CLIENT|52=20151116-19:23:57.506|56=SERVER|11=4|21=1|38=30|40=2|44=50|54=1|55=HH|60=20151116-19:23:57.506|64=20121212|10=148|