8=FIX.4.2|9=67|35=A|34=1|49=CLIENT|52=20151110-20:42:22.300|56=SERVER|98=0|108=30|10=129|
8=FIX.4.2|9=106|35=5|34=49|49=SERVER|52=20151110-20:42:22.396|56=CLIENT|58=MsgSeqNum too low, expecting 49 but received 1|10=163|
8=FIX.4.2|9=55|35=5|34=2|49=CLIENT|52=20151110-20:42:22.421|56=SERVER|10=094|
8=FIX.4.2|9=67|35=A|34=3|49=CLIENT|52=20151110-20:42:24.234|56=SERVER|98=0|108=30|10=139|
8=FIX.4.2|9=106|35=5|34=50|49=SERVER|52=20151110-20:42:24.237|56=CLIENT|58=MsgSeqNum too low, expecting 49 but received 3|10=153|
8=FIX.4.2|9=55|35=5|34=4|49=CLIENT|52=20151110-20:42:24.240|56=SERVER|10=097|
8=FIX.4.2|9=67|35=A|34=5|49=CLIENT|52=20151110-20:42:25.233|56=SERVER|98=0|108=30|10=141|
8=FIX.4.2|9=106|35=5|34=51|49=SERVER|52=20151110-20:42:25.237|56=CLIENT|58=MsgSeqNum too low, expecting 49 but received 5|10=157|
8=FIX.4.2|9=55|35=5|34=6|49=CLIENT|52=20151110-20:42:25.240|56=SERVER|10=100|
8=FIX.4.2|9=67|35=A|34=7|49=CLIENT|52=20151110-20:42:26.234|56=SERVER|98=0|108=30|10=145|
8=FIX.4.2|9=106|35=5|34=52|49=SERVER|52=20151110-20:42:26.237|56=CLIENT|58=MsgSeqNum too low, expecting 49 but received 7|10=161|
8=FIX.4.2|9=55|35=5|34=8|49=CLIENT|52=20151110-20:42:26.239|56=SERVER|10=111|
8=FIX.4.2|9=67|35=A|34=9|49=CLIENT|52=20151110-20:42:27.234|56=SERVER|98=0|108=30|10=148|
8=FIX.4.2|9=106|35=5|34=53|49=SERVER|52=20151110-20:42:27.237|56=CLIENT|58=MsgSeqNum too low, expecting 49 but received 9|10=165|
8=FIX.4.2|9=56|35=5|34=10|49=CLIENT|52=20151110-20:42:27.239|56=SERVER|10=154|
8=FIX.4.2|9=68|35=A|34=11|49=CLIENT|52=20151110-20:42:28.235|56=SERVER|98=0|108=30|10=192|
8=FIX.4.2|9=107|35=5|34=54|49=SERVER|52=20151110-20:42:28.239|56=CLIENT|58=MsgSeqNum too low, expecting 49 but received 11|10=211|
8=FIX.4.2|9=56|35=5|34=12|49=CLIENT|52=20151110-20:42:28.242|56=SERVER|10=151|
8=FIX.4.2|9=68|35=A|34=13|49=CLIENT|52=20151110-20:42:29.232|56=SERVER|98=0|108=30|10=192|
8=FIX.4.2|9=107|35=5|34=55|49=SERVER|52=20151110-20:42:29.234|56=CLIENT|58=MsgSeqNum too low, expecting 49 but received 13|10=210|
8=FIX.4.2|9=56|35=5|34=14|49=CLIENT|52=20151110-20:42:29.236|56=SERVER|10=157|
8=FIX.4.2|9=68|35=A|34=15|49=CLIENT|52=20151110-20:42:30.234|56=SERVER|98=0|108=30|10=188|
8=FIX.4.2|9=107|35=5|34=56|49=SERVER|52=20151110-20:42:30.238|56=CLIENT|58=MsgSeqNum too low, expecting 49 but received 15|10=209|
8=FIX.4.2|9=56|35=5|34=16|49=CLIENT|52=20151110-20:42:30.243|56=SERVER|10=149|
8=FIX.4.2|9=68|35=A|34=17|49=CLIENT|52=20151110-20:42:31.234|56=SERVER|98=0|108=30|10=191|
8=FIX.4.2|9=107|35=5|34=57|49=SERVER|52=20151110-20:42:31.236|56=CLIENT|58=MsgSeqNum too low, expecting 49 but received 17|10=211|
8=FIX.4.2|9=56|35=5|34=18|49=CLIENT|52=20151110-20:42:31.238|56=SERVER|10=156|
8=FIX.4.2|9=68|35=A|34=19|49=CLIENT|52=20151110-20:42:32.234|56=SERVER|98=0|108=30|10=194|
8=FIX.4.2|9=107|35=5|34=58|49=SERVER|52=20151110-20:42:32.236|56=CLIENT|58=MsgSeqNum too low, expecting 49 but received 19|10=215|
8=FIX.4.2|9=56|35=5|34=20|49=CLIENT|52=20151110-20:42:32.238|56=SERVER|10=150|
8=FIX.4.2|9=68|35=A|34=21|49=CLIENT|52=20151110-20:42:33.233|56=SERVER|98=0|108=30|10=187|
8=FIX.4.2|9=107|35=5|34=59|49=SERVER|52=20151110-20:42:33.236|56=CLIENT|58=MsgSeqNum too low, expecting 49 but received 21|10=210|
8=FIX.4.2|9=56|35=5|34=22|49=CLIENT|52=20151110-20:42:33.239|56=SERVER|10=154|
8=FIX.4.2|9=68|35=A|34=23|49=CLIENT|52=20151110-20:42:34.237|56=SERVER|98=0|108=30|10=194|
8=FIX.4.2|9=107|35=5|34=60|49=SERVER|52=20151110-20:42:34.251|56=CLIENT|58=MsgSeqNum too low, expecting 49 but received 23|10=202|
8=FIX.4.2|9=56|35=5|34=24|49=CLIENT|52=20151110-20:42:34.257|56=SERVER|10=157|
8=FIX.4.2|9=68|35=A|34=25|49=CLIENT|52=20151110-20:42:35.234|56=SERVER|98=0|108=30|10=194|
8=FIX.4.2|9=107|35=5|34=61|49=SERVER|52=20151110-20:42:35.236|56=CLIENT|58=MsgSeqNum too low, expecting 49 but received 25|10=209|
8=FIX.4.2|9=56|35=5|34=26|49=CLIENT|52=20151110-20:42:35.238|56=SERVER|10=159|
8=FIX.4.2|9=68|35=A|34=27|49=CLIENT|52=20151110-20:42:36.232|56=SERVER|98=0|108=30|10=195|
8=FIX.4.2|9=107|35=5|34=62|49=SERVER|52=20151110-20:42:36.233|56=CLIENT|58=MsgSeqNum too low, expecting 49 but received 27|10=210|
8=FIX.4.2|9=56|35=5|34=28|49=CLIENT|52=20151110-20:42:36.235|56=SERVER|10=159|
8=FIX.4.2|9=68|35=A|34=29|49=CLIENT|52=20151110-20:42:37.235|56=SERVER|98=0|108=30|10=201|
8=FIX.4.2|9=107|35=5|34=63|49=SERVER|52=20151110-20:42:37.238|56=CLIENT|58=MsgSeqNum too low, expecting 49 but received 29|10=219|
8=FIX.4.2|9=56|35=5|34=30|49=CLIENT|52=20151110-20:42:37.240|56=SERVER|10=149|
8=FIX.4.2|9=68|35=A|34=31|49=CLIENT|52=20151110-20:42:38.235|56=SERVER|98=0|108=30|10=195|
8=FIX.4.2|9=107|35=5|34=64|49=SERVER|52=20151110-20:42:38.240|56=CLIENT|58=MsgSeqNum too low, expecting 49 but received 31|10=207|
8=FIX.4.2|9=56|35=5|34=32|49=CLIENT|52=20151110-20:42:38.255|56=SERVER|10=158|
8=FIX.4.2|9=68|35=A|34=33|49=CLIENT|52=20151110-20:42:39.234|56=SERVER|98=0|108=30|10=197|
8=FIX.4.2|9=107|35=5|34=65|49=SERVER|52=20151110-20:42:39.237|56=CLIENT|58=MsgSeqNum too low, expecting 49 but received 33|10=217|
8=FIX.4.2|9=56|35=5|34=34|49=CLIENT|52=20151110-20:42:39.239|56=SERVER|10=163|
8=FIX.4.2|9=68|35=A|34=35|49=CLIENT|52=20151110-20:42:47.234|56=SERVER|98=0|108=30|10=198|
8=FIX.4.2|9=107|35=5|34=66|49=SERVER|52=20151110-20:42:47.266|56=CLIENT|58=MsgSeqNum too low, expecting 49 but received 35|10=221|
8=FIX.4.2|9=56|35=5|34=36|49=CLIENT|52=20151110-20:42:47.271|56=SERVER|10=160|
8=FIX.4.2|9=68|35=A|34=37|49=CLIENT|52=20151110-20:42:48.234|56=SERVER|98=0|108=30|10=201|
8=FIX.4.2|9=107|35=5|34=67|49=SERVER|52=20151110-20:42:48.239|56=CLIENT|58=MsgSeqNum too low, expecting 49 but received 37|10=225|
8=FIX.4.2|9=56|35=5|34=38|49=CLIENT|52=20151110-20:42:48.240|56=SERVER|10=159|
8=FIX.4.2|9=68|35=A|34=39|49=CLIENT|52=20151110-20:42:49.235|56=SERVER|98=0|108=30|10=205|
8=FIX.4.2|9=107|35=5|34=68|49=SERVER|52=20151110-20:42:49.239|56=CLIENT|58=MsgSeqNum too low, expecting 49 but received 39|10=229|
8=FIX.4.2|9=56|35=5|34=40|49=CLIENT|52=20151110-20:42:49.242|56=SERVER|10=155|
8=FIX.4.2|9=68|35=A|34=41|49=CLIENT|52=20151110-20:42:50.234|56=SERVER|98=0|108=30|10=189|
8=FIX.4.2|9=107|35=5|34=69|49=SERVER|52=20151110-20:42:50.237|56=CLIENT|58=MsgSeqNum too low, expecting 49 but received 41|10=213|
8=FIX.4.2|9=56|35=5|34=42|49=CLIENT|52=20151110-20:42:50.238|56=SERVER|10=154|
8=FIX.4.2|9=68|35=A|34=43|49=CLIENT|52=20151110-20:42:51.235|56=SERVER|98=0|108=30|10=193|
8=FIX.4.2|9=107|35=5|34=70|49=SERVER|52=20151110-20:42:51.238|56=CLIENT|58=MsgSeqNum too low, expecting 49 but received 43|10=209|
8=FIX.4.2|9=56|35=5|34=44|49=CLIENT|52=20151110-20:42:51.241|56=SERVER|10=151|
8=FIX.4.2|9=68|35=A|34=45|49=CLIENT|52=20151110-20:42:52.235|56=SERVER|98=0|108=30|10=196|
8=FIX.4.2|9=107|35=5|34=71|49=SERVER|52=20151110-20:42:52.238|56=CLIENT|58=MsgSeqNum too low, expecting 49 but received 45|10=213|
8=FIX.4.2|9=56|35=5|34=46|49=CLIENT|52=20151110-20:42:52.240|56=SERVER|10=153|
8=FIX.4.2|9=68|35=A|34=47|49=CLIENT|52=20151110-20:42:53.235|56=SERVER|98=0|108=30|10=199|
8=FIX.4.2|9=107|35=5|34=72|49=SERVER|52=20151110-20:42:53.238|56=CLIENT|58=MsgSeqNum too low, expecting 49 but received 47|10=217|
8=FIX.4.2|9=56|35=5|34=48|49=CLIENT|52=20151110-20:42:53.240|56=SERVER|10=156|
8=FIX.4.2|9=68|35=A|34=49|49=CLIENT|52=20151110-20:43:14.852|56=SERVER|98=0|108=30|10=204|
8=FIX.4.2|9=68|35=A|34=73|49=SERVER|52=20151110-20:43:14.864|56=CLIENT|98=0|108=30|10=204|
8=FIX.4.2|9=65|35=2|34=50|49=CLIENT|52=20151110-20:43:14.877|56=SERVER|7=1|16=0|10=027|
8=FIX.4.2|9=97|35=4|34=1|43=Y|49=SERVER|52=20151110-20:43:14.922|56=CLIENT|122=20151110-20:43:14.922|36=2|123=Y|10=102|
8=FIX.4.2|9=160|35=8|34=2|43=Y|49=SERVER|52=20151110-20:43:14.921|56=CLIENT|122=20151110-04:41:33.760|6=1.235|14=100|17=1|20=0|37=1|39=2|44=1.234|54=1|55=EUR/USD|150=2|151=100|10=026|
8=FIX.4.2|9=97|35=4|34=3|43=Y|49=SERVER|52=20151110-20:43:14.923|56=CLIENT|122=20151110-20:43:14.923|36=4|123=Y|10=108|
8=FIX.4.2|9=160|35=8|34=4|43=Y|49=SERVER|52=20151110-20:43:14.923|56=CLIENT|122=20151110-04:46:05.614|6=1.235|14=100|17=1|20=0|37=1|39=2|44=1.234|54=1|55=EUR/USD|150=2|151=100|10=032|
8=FIX.4.2|9=97|35=4|34=5|43=Y|49=SERVER|52=20151110-20:43:14.925|56=CLIENT|122=20151110-20:43:14.925|36=8|123=Y|10=118|
8=FIX.4.2|9=160|35=8|34=8|43=Y|49=SERVER|52=20151110-20:43:14.925|56=CLIENT|122=20151110-04:47:37.944|6=1.235|14=100|17=1|20=0|37=1|39=2|44=1.234|54=1|55=EUR/USD|150=2|151=100|10=050|
8=FIX.4.2|9=98|35=4|34=9|43=Y|49=SERVER|52=20151110-20:43:14.929|56=CLIENT|122=20151110-20:43:14.929|36=44|123=Y|10=179|
8=FIX.4.2|9=161|35=8|34=44|43=Y|49=SERVER|52=20151110-20:43:14.929|56=CLIENT|122=20151110-05:08:44.139|6=1.235|14=100|17=1|20=0|37=1|39=2|44=1.234|54=1|55=EUR/USD|150=2|151=100|10=095|
8=FIX.4.2|9=99|35=4|34=45|43=Y|49=SERVER|52=20151110-20:43:14.931|56=CLIENT|122=20151110-20:43:14.930|36=46|123=Y|10=215|
8=FIX.4.2|9=161|35=8|34=46|43=Y|49=SERVER|52=20151110-20:43:14.930|56=CLIENT|122=20151110-14:38:26.702|6=1.235|14=100|17=1|20=0|37=1|39=2|44=1.234|54=1|55=EUR/USD|150=2|151=100|10=088|
8=FIX.4.2|9=99|35=4|34=47|43=Y|49=SERVER|52=20151110-20:43:14.932|56=CLIENT|122=20151110-20:43:14.932|36=48|123=Y|10=222|
8=FIX.4.2|9=161|35=8|34=48|43=Y|49=SERVER|52=20151110-20:43:14.932|56=CLIENT|122=20151110-14:39:43.445|6=1.235|14=100|17=1|20=0|37=1|39=2|44=1.234|54=1|55=EUR/USD|150=2|151=100|10=096|
8=FIX.4.2|9=99|35=4|34=49|43=Y|49=SERVER|52=20151110-20:43:14.934|56=CLIENT|122=20151110-20:43:14.934|36=74|123=Y|10=227|
8=FIX.4.2|9=119|35=D|34=51|49=CLIENT|52=20151110-20:43:20.840|56=SERVER|11=1|21=1|38=100|40=C|54=1|55=EUR/USD|60=20151110-20:43:20.834|10=231|
8=FIX.4.2|9=68|35=A|34=52|49=CLIENT|52=20151110-20:43:35.075|56=SERVER|98=0|108=30|10=198|
8=FIX.4.2|9=68|35=A|34=75|49=SERVER|52=20151110-20:43:35.078|56=CLIENT|98=0|108=30|10=206|
8=FIX.4.2|9=66|35=2|34=53|49=CLIENT|52=20151110-20:43:35.082|56=SERVER|7=74|16=0|10=080|
8=FIX.4.2|9=161|35=8|34=74|43=Y|49=SERVER|52=20151110-20:43:35.084|56=CLIENT|122=20151110-20:43:20.863|6=1.235|14=100|17=1|20=0|37=1|39=2|44=1.234|54=1|55=EUR/USD|150=2|151=100|10=087|
8=FIX.4.2|9=99|35=4|34=75|43=Y|49=SERVER|52=20151110-20:43:35.084|56=CLIENT|122=20151110-20:43:35.084|36=76|123=Y|10=226|
8=FIX.4.2|9=119|35=D|34=54|49=CLIENT|52=20151110-20:43:41.073|56=SERVER|11=1|21=1|38=100|40=C|54=1|55=EUR/USD|60=20151110-20:43:41.073|10=233|
8=FIX.4.2|9=68|35=A|34=55|49=CLIENT|52=20151110-20:44:23.590|56=SERVER|98=0|108=30|10=201|
8=FIX.4.2|9=68|35=A|34=77|49=SERVER|52=20151110-20:44:23.607|56=CLIENT|98=0|108=30|10=204|
8=FIX.4.2|9=66|35=2|34=56|49=CLIENT|52=20151110-20:44:23.615|56=SERVER|7=76|16=0|10=085|
8=FIX.4.2|9=161|35=8|34=76|43=Y|49=SERVER|52=20151110-20:44:23.617|56=CLIENT|122=20151110-20:43:41.077|6=1.235|14=100|17=1|20=0|37=1|39=2|44=1.234|54=1|55=EUR/USD|150=2|151=100|10=089|
8=FIX.4.2|9=99|35=4|34=77|43=Y|49=SERVER|52=20151110-20:44:23.617|56=CLIENT|122=20151110-20:44:23.617|36=78|123=Y|10=230|
8=FIX.4.2|9=119|35=D|34=57|49=CLIENT|52=20151110-20:44:29.578|56=SERVER|11=1|21=1|38=100|40=C|54=1|55=EUR/USD|60=20151110-20:44:29.571|10=007|
8=FIX.4.2|9=67|35=A|34=1|49=CLIENT|52=20151112-19:56:20.072|56=SERVER|98=0|108=30|10=148|
8=FIX.4.2|9=67|35=A|34=1|49=SERVER|52=20151112-19:56:20.109|56=CLIENT|98=0|108=30|10=149|
8=FIX.4.2|9=130|35=D|34=2|49=CLIENT|52=20151112-19:56:23.087|56=SERVER|11=1|21=1|38=12|40=1|44=12|54=1|55=HH|60=20151112-19:56:23.057|64=20181010|10=085|
8=FIX.4.2|9=67|35=A|34=3|49=CLIENT|52=20151112-20:12:35.913|56=SERVER|98=0|108=30|10=144|
8=FIX.4.2|9=67|35=A|34=2|49=SERVER|52=20151112-20:12:35.952|56=CLIENT|98=0|108=30|10=146|
8=FIX.4.2|9=64|35=2|34=3|49=SERVER|52=20151112-20:12:35.958|56=CLIENT|7=2|16=0|10=234|
8=FIX.4.2|9=161|35=D|34=2|43=Y|49=CLIENT|52=20151112-20:12:35.977|56=SERVER|122=20151112-19:56:23.087|11=1|21=1|38=12|40=1|44=12|54=1|55=HH|60=20151112-19:56:23.057|64=20181010|10=090|
8=FIX.4.2|9=97|35=4|34=3|43=Y|49=CLIENT|52=20151112-20:12:35.980|56=SERVER|122=20151112-20:12:35.980|36=4|123=Y|10=116|
8=FIX.4.2|9=127|35=8|34=4|49=SERVER|52=20151112-20:12:36.005|56=CLIENT|6=1.235|14=100|17=1|20=0|37=1|39=2|44=12|54=1|55=HH|150=2|151=100|211=0|10=025|
8=FIX.4.2|9=130|35=D|34=4|49=CLIENT|52=20151112-20:12:38.895|56=SERVER|11=1|21=1|38=11|40=1|44=11|54=1|55=HH|60=20151112-20:12:38.894|64=20191111|10=084|
8=FIX.4.2|9=67|35=A|34=1|49=CLIENT|52=20151113-20:23:45.936|56=SERVER|98=0|108=30|10=151|
8=FIX.4.2|9=67|35=A|34=1|49=SERVER|52=20151113-20:23:45.973|56=CLIENT|98=0|108=30|10=152|
8=FIX.4.2|9=130|35=D|34=2|49=CLIENT|52=20151113-20:23:48.948|56=SERVER|11=1|21=1|38=11|40=1|44=11|54=1|55=HH|60=20151113-20:23:48.915|64=20101010|10=072|
8=FIX.4.2|9=67|35=A|34=3|49=CLIENT|52=20151113-20:24:08.001|56=SERVER|98=0|108=30|10=136|
8=FIX.4.2|9=67|35=A|34=3|49=SERVER|52=20151113-20:24:08.004|56=CLIENT|98=0|108=30|10=139|
8=FIX.4.2|9=64|35=2|34=4|49=CLIENT|52=20151113-20:24:08.016|56=SERVER|7=2|16=0|10=224|
8=FIX.4.2|9=158|35=8|34=2|43=Y|49=SERVER|52=20151113-20:24:08.020|56=CLIENT|122=20151113-20:23:48.995|6=1.235|14=100|17=1|20=0|37=1|39=2|44=11|54=1|55=HH|150=2|151=100|211=0|10=034|
8=FIX.4.2|9=97|35=4|34=3|43=Y|49=SERVER|52=20151113-20:24:08.022|56=CLIENT|122=20151113-20:24:08.022|36=4|123=Y|10=098|
8=FIX.4.2|9=130|35=D|34=5|49=CLIENT|52=20151113-20:24:11.000|56=SERVER|11=2|21=1|38=12|40=1|44=21|54=2|55=HH|60=20151113-20:24:11.000|64=12311212|10=033|
8=FIX.4.2|9=67|35=A|34=6|49=CLIENT|52=20151113-20:24:27.610|56=SERVER|98=0|108=30|10=146|
8=FIX.4.2|9=67|35=A|34=5|49=SERVER|52=20151113-20:24:27.613|56=CLIENT|98=0|108=30|10=148|
8=FIX.4.2|9=64|35=2|34=7|49=CLIENT|52=20151113-20:24:27.617|56=SERVER|7=4|16=0|10=237|
8=FIX.4.2|9=158|35=8|34=4|43=Y|49=SERVER|52=20151113-20:24:27.618|56=CLIENT|122=20151113-20:24:11.006|6=1.235|14=100|17=2|20=0|37=2|39=2|44=21|54=2|55=HH|150=2|151=100|211=0|10=028|
8=FIX.4.2|9=97|35=4|34=5|43=Y|49=SERVER|52=20151113-20:24:27.619|56=CLIENT|122=20151113-20:24:27.619|36=6|123=Y|10=128|
8=FIX.4.2|9=130|35=D|34=8|49=CLIENT|52=20151113-20:24:30.607|56=SERVER|11=3|21=1|38=12|40=1|44=12|54=1|55=HH|60=20151113-20:24:30.606|64=12211221|10=062|
8=FIX.4.2|9=67|35=A|34=1|49=CLIENT|52=20151116-16:32:46.221|56=SERVER|98=0|108=30|10=147|
8=FIX.4.2|9=67|35=A|34=1|49=SERVER|52=20151116-16:32:46.260|56=CLIENT|98=0|108=30|10=150|
8=FIX.4.2|9=130|35=D|34=2|49=CLIENT|52=20151116-16:32:49.222|56=SERVER|11=1|21=1|38=12|40=1|44=12|54=1|55=HH|60=20151116-16:32:49.190|64=20191212|10=085|
8=FIX.4.2|9=67|35=A|34=3|49=CLIENT|52=20151116-16:33:58.703|56=SERVER|98=0|108=30|10=158|
8=FIX.4.2|9=67|35=A|34=3|49=SERVER|52=20151116-16:33:58.742|56=CLIENT|98=0|108=30|10=161|
8=FIX.4.2|9=64|35=2|34=4|49=CLIENT|52=20151116-16:33:58.771|56=SERVER|7=2|16=0|10=245|
8=FIX.4.2|9=158|35=8|34=2|43=Y|49=SERVER|52=20151116-16:33:58.794|56=CLIENT|122=20151116-16:32:49.269|6=1.235|14=100|17=1|20=0|37=1|39=2|44=12|54=1|55=HH|150=2|151=100|211=0|10=069|
8=FIX.4.2|9=97|35=4|34=3|43=Y|49=SERVER|52=20151116-16:33:58.796|56=CLIENT|122=20151116-16:33:58.796|36=4|123=Y|10=160|
8=FIX.4.2|9=130|35=D|34=5|49=CLIENT|52=20151116-16:34:01.687|56=SERVER|11=1|21=1|38=12|40=2|44=12|54=1|55=HH|60=20151116-16:34:01.681|64=20191212|10=089|
8=FIX.4.2|9=67|35=A|34=6|49=CLIENT|52=20151116-16:35:01.790|56=SERVER|98=0|108=30|10=157|
8=FIX.4.2|9=67|35=A|34=5|49=SERVER|52=20151116-16:35:01.793|56=CLIENT|98=0|108=30|10=159|
8=FIX.4.2|9=64|35=2|34=7|49=CLIENT|52=20151116-16:35:01.797|56=SERVER|7=4|16=0|10=248|
8=FIX.4.2|9=158|35=8|34=4|43=Y|49=SERVER|52=20151116-16:35:01.799|56=CLIENT|122=20151116-16:34:01.705|6=1.235|14=100|17=1|20=0|37=1|39=2|44=12|54=1|55=HH|150=2|151=100|211=0|10=051|
8=FIX.4.2|9=97|35=4|34=5|43=Y|49=SERVER|52=20151116-16:35:01.800|56=CLIENT|122=20151116-16:35:01.800|36=6|123=Y|10=116|
8=FIX.4.2|9=137|35=D|34=8|49=CLIENT|52=20151116-16:35:04.788|56=SERVER|11=2|21=1|38=11|40=P|44=11|54=1|55=HH|60=20151116-16:35:04.787|64=20191111|211=12|10=196|
8=FIX.4.2|9=67|35=A|34=9|49=CLIENT|52=20151116-18:04:16.945|56=SERVER|98=0|108=30|10=166|
8=FIX.4.2|9=67|35=A|34=7|49=SERVER|52=20151116-18:04:16.971|56=CLIENT|98=0|108=30|10=163|
8=FIX.4.2|9=65|35=2|34=10|49=CLIENT|52=20151116-18:04:16.982|56=SERVER|7=6|16=0|10=037|
8=FIX.4.2|9=159|35=8|34=6|43=Y|49=SERVER|52=20151116-18:04:17.001|56=CLIENT|122=20151116-16:35:04.792|6=1.235|14=100|17=2|20=0|37=2|39=2|44=11|54=1|55=HH|150=2|151=100|211=12|10=097|
8=FIX.4.2|9=97|35=4|34=7|43=Y|49=SERVER|52=20151116-18:04:17.002|56=CLIENT|122=20151116-18:04:17.002|36=8|123=Y|10=118|
8=FIX.4.2|9=118|35=j|34=11|49=CLIENT|52=20151116-18:04:17.024|56=SERVER|45=6|58=Conditionally Required Field Missing (38)|372=8|380=5|10=061|
8=FIX.4.2|9=131|35=D|34=12|49=CLIENT|52=20151116-18:04:19.934|56=SERVER|11=1|21=1|38=50|40=1|44=50|54=1|55=HH|60=20151116-18:04:19.929|64=12121212|10=149|
8=FIX.4.2|9=68|35=A|34=13|49=CLIENT|52=20151116-18:05:34.870|56=SERVER|98=0|108=30|10=208|
8=FIX.4.2|9=68|35=A|34=11|49=SERVER|52=20151116-18:05:34.899|56=CLIENT|98=0|108=30|10=217|
8=FIX.4.2|9=65|35=2|34=14|49=CLIENT|52=20151116-18:05:34.910|56=SERVER|7=8|16=0|10=035|
8=FIX.4.2|9=154|35=8|34=8|43=Y|49=SERVER|52=20151116-18:05:34.929|56=CLIENT|122=20151116-18:04:19.950|6=0|14=100|17=1|20=0|37=1|38=42|39=1|44=50|54=1|55=HH|150=1|151=100|10=129|
8=FIX.4.2|9=155|35=8|34=9|43=Y|49=SERVER|52=20151116-18:05:34.930|56=CLIENT|122=20151116-18:04:19.952|6=0|14=100|17=1|20=0|37=1|38=3|39=1|44=50.1|54=1|55=HH|150=1|151=100|10=169|
8=FIX.4.2|9=156|35=8|34=10|43=Y|49=SERVER|52=20151116-18:05:34.931|56=CLIENT|122=20151116-18:04:19.953|6=0|14=100|17=1|20=0|37=1|38=5|39=2|44=50.3|54=1|55=HH|150=2|151=100|10=218|
8=FIX.4.2|9=99|35=4|34=11|43=Y|49=SERVER|52=20151116-18:05:34.933|56=CLIENT|122=20151116-18:05:34.933|36=12|123=Y|10=232|
8=FIX.4.2|9=131|35=D|34=15|49=CLIENT|52=20151116-18:05:37.859|56=SERVER|11=1|21=1|38=50|40=1|44=50|54=1|55=HH|60=20151116-18:05:37.852|64=12121212|10=155|
8=FIX.4.2|9=68|35=A|34=16|49=CLIENT|52=20151116-18:51:52.949|56=SERVER|98=0|108=30|10=219|
8=FIX.4.2|9=68|35=A|34=15|49=SERVER|52=20151116-18:51:52.991|56=CLIENT|98=0|108=30|10=215|
8=FIX.4.2|9=66|35=2|34=17|49=CLIENT|52=20151116-18:51:53.006|56=SERVER|7=12|16=0|10=080|
8=FIX.4.2|9=155|35=8|34=12|43=Y|49=SERVER|52=20151116-18:51:53.034|56=CLIENT|122=20151116-18:05:37.879|6=0|14=100|17=1|20=0|37=1|38=45|39=1|44=50|54=1|55=HH|150=1|151=100|10=176|
8=FIX.4.2|9=156|35=8|34=13|43=Y|49=SERVER|52=20151116-18:51:53.035|56=CLIENT|122=20151116-18:05:37.880|6=0|14=100|17=1|20=0|37=1|38=5|39=2|44=50.1|54=1|55=HH|150=2|151=100|10=216|
8=FIX.4.2|9=156|35=8|34=14|43=Y|49=SERVER|52=20151116-18:51:53.036|56=CLIENT|122=20151116-18:05:37.881|6=0|14=100|17=1|20=0|37=1|38=0|39=2|44=50.3|54=1|55=HH|150=2|151=100|10=216|
8=FIX.4.2|9=99|35=4|34=15|43=Y|49=SERVER|52=20151116-18:51:53.038|56=CLIENT|122=20151116-18:51:53.037|36=16|123=Y|10=235|
8=FIX.4.2|9=131|35=D|34=18|49=CLIENT|52=20151116-18:51:55.931|56=SERVER|11=1|21=1|38=50|40=2|44=50|54=1|55=HH|60=20151116-18:51:55.914|64=12121212|10=151|
8=FIX.4.2|9=68|35=A|34=19|49=CLIENT|52=20151116-18:54:30.104|56=SERVER|98=0|108=30|10=204|
8=FIX.4.2|9=68|35=A|34=16|49=SERVER|52=20151116-18:54:30.153|56=CLIENT|98=0|108=30|10=205|
8=FIX.4.2|9=131|35=D|34=20|49=CLIENT|52=20151116-18:54:33.108|56=SERVER|11=1|21=1|38=50|40=2|44=50|54=1|55=HH|60=20151116-18:54:33.091|64=12121212|10=134|
8=FIX.4.2|9=68|35=A|34=21|49=CLIENT|52=20151116-18:55:29.943|56=SERVER|98=0|108=30|10=217|
8=FIX.4.2|9=68|35=A|34=17|49=SERVER|52=20151116-18:55:29.954|56=CLIENT|98=0|108=30|10=224|
8=FIX.4.2|9=132|35=D|34=22|49=CLIENT|52=20151116-18:55:32.942|56=SERVER|11=2|21=1|38=100|40=2|44=50|54=1|55=HH|60=20151116-18:55:32.942|64=12121212|10=193|
8=FIX.4.2|9=68|35=A|34=23|49=CLIENT|52=20151116-18:56:31.635|56=SERVER|98=0|108=30|10=211|
8=FIX.4.2|9=68|35=A|34=18|49=SERVER|52=20151116-18:56:31.653|56=CLIENT|98=0|108=30|10=215|
8=FIX.4.2|9=131|35=D|34=24|49=CLIENT|52=20151116-18:56:34.639|56=SERVER|11=1|21=1|38=50|40=2|44=50|54=1|55=HH|60=20151116-18:56:34.618|64=20101212|10=155|
8=FIX.4.2|9=68|35=A|34=25|49=CLIENT|52=20151116-18:56:55.880|56=SERVER|98=0|108=30|10=221|
8=FIX.4.2|9=68|35=A|34=19|49=SERVER|52=20151116-18:56:55.883|56=CLIENT|98=0|108=30|10=227|
8=FIX.4.2|9=131|35=D|34=26|49=CLIENT|52=20151116-18:56:58.879|56=SERVER|11=2|21=1|38=12|40=1|44=12|54=1|55=HH|60=20151116-18:56:58.879|64=12121212|10=183|
8=FIX.4.2|9=68|35=A|34=27|49=CLIENT|52=20151116-18:58:51.353|56=SERVER|98=0|108=30|10=216|
8=FIX.4.2|9=68|35=A|34=26|49=SERVER|52=20151116-18:58:51.371|56=CLIENT|98=0|108=30|10=215|
8=FIX.4.2|9=66|35=2|34=28|49=CLIENT|52=20151116-18:58:51.380|56=SERVER|7=20|16=0|10=091|
8=FIX.4.2|9=169|35=8|34=20|43=Y|49=SERVER|52=20151116-18:58:51.383|56=CLIENT|122=20151116-18:56:58.883|6=0|14=100|17=4|20=0|37=4|38=1|39=1|44=48.11980175887115|54=1|55=HH|150=1|151=100|10=165|
8=FIX.4.2|9=168|35=8|34=21|43=Y|49=SERVER|52=20151116-18:58:51.384|56=CLIENT|122=20151116-18:56:58.885|6=0|14=100|17=4|20=0|37=4|38=5|39=1|44=48.9751442603517|54=1|55=HH|150=1|151=100|10=116|
8=FIX.4.2|9=169|35=8|34=22|43=Y|49=SERVER|52=20151116-18:58:51.384|56=CLIENT|122=20151116-18:56:58.886|6=0|14=100|17=4|20=0|37=4|38=4|39=1|44=51.17507212123991|54=1|55=HH|150=1|151=100|10=156|
8=FIX.4.2|9=169|35=8|34=23|43=Y|49=SERVER|52=20151116-18:58:51.385|56=CLIENT|122=20151116-18:56:58.887|6=0|14=100|17=4|20=0|37=4|38=2|39=2|44=47.82081374868885|54=1|55=HH|150=2|151=100|10=190|
8=FIX.4.2|9=168|35=8|34=24|43=Y|49=SERVER|52=20151116-18:58:51.385|56=CLIENT|122=20151116-18:56:58.888|6=0|14=100|17=4|20=0|37=4|38=0|39=2|44=48.9445785702207|54=1|55=HH|150=2|151=100|10=126|
8=FIX.4.2|9=168|35=8|34=25|43=Y|49=SERVER|52=20151116-18:58:51.386|56=CLIENT|122=20151116-18:56:58.889|6=0|14=100|17=4|20=0|37=4|38=0|39=2|44=51.1040725747445|54=1|55=HH|150=2|151=100|10=113|
8=FIX.4.2|9=99|35=4|34=26|43=Y|49=SERVER|52=20151116-18:58:51.387|56=CLIENT|122=20151116-18:58:51.387|36=27|123=Y|10=008|
8=FIX.4.2|9=131|35=D|34=29|49=CLIENT|52=20151116-18:58:54.343|56=SERVER|11=1|21=1|38=50|40=1|44=50|54=1|55=HP|60=20151116-18:58:54.337|64=20191212|10=174|
8=FIX.4.2|9=68|35=A|34=30|49=CLIENT|52=20151116-19:08:54.539|56=SERVER|98=0|108=30|10=215|
8=FIX.4.2|9=68|35=A|34=30|49=SERVER|52=20151116-19:08:54.576|56=CLIENT|98=0|108=30|10=216|
8=FIX.4.2|9=66|35=2|34=31|49=CLIENT|52=20151116-19:08:54.588|56=SERVER|7=27|16=0|10=101|
8=FIX.4.2|9=170|35=8|34=27|43=Y|49=SERVER|52=20151116-19:08:54.604|56=CLIENT|122=20151116-18:58:54.346|6=0|14=100|17=5|20=0|37=5|38=28|39=1|44=46.15385907104051|54=1|55=HP|150=1|151=100|10=203|
8=FIX.4.2|9=169|35=8|34=28|43=Y|49=SERVER|52=20151116-19:08:54.605|56=CLIENT|122=20151116-18:58:54.347|6=0|14=100|17=5|20=0|37=5|38=9|39=1|44=46.52944248080069|54=1|55=HP|150=1|151=100|10=177|
8=FIX.4.2|9=170|35=8|34=29|43=Y|49=SERVER|52=20151116-19:08:54.606|56=CLIENT|122=20151116-18:58:54.348|6=0|14=100|17=5|20=0|37=5|38=13|39=2|44=47.11692834684959|54=1|55=HP|150=2|151=100|10=232|
8=FIX.4.2|9=99|35=4|34=30|43=Y|49=SERVER|52=20151116-19:08:54.608|56=CLIENT|122=20151116-19:08:54.607|36=31|123=Y|10=243|
8=FIX.4.2|9=131|35=D|34=32|49=CLIENT|52=20151116-19:08:57.531|56=SERVER|11=1|21=1|38=50|40=1|44=50|54=1|55=HH|60=20151116-19:08:57.524|64=20191212|10=155|
8=FIX.4.2|9=68|35=A|34=33|49=CLIENT|52=20151116-19:10:54.413|56=SERVER|98=0|108=30|10=202|
8=FIX.4.2|9=68|35=A|34=34|49=SERVER|52=20151116-19:10:54.425|56=CLIENT|98=0|108=30|10=206|
8=FIX.4.2|9=66|35=2|34=34|49=CLIENT|52=20151116-19:10:54.428|56=SERVER|7=31|16=0|10=085|
8=FIX.4.2|9=154|35=8|34=31|43=Y|49=SERVER|52=20151116-19:10:54.430|56=CLIENT|122=20151116-19:08:57.546|6=0|14=100|17=1|20=0|37=1|38=4|39=1|44=50|54=1|55=HH|150=1|151=100|10=117|
8=FIX.4.2|9=157|35=8|34=32|43=Y|49=SERVER|52=20151116-19:10:54.431|56=CLIENT|122=20151116-19:08:57.548|6=0|14=100|17=1|20=0|37=1|38=27|39=1|44=50.1|54=1|55=HH|150=1|151=100|10=016|
8=FIX.4.2|9=157|35=8|34=33|43=Y|49=SERVER|52=20151116-19:10:54.432|56=CLIENT|122=20151116-19:08:57.550|6=0|14=100|17=1|20=0|37=1|38=19|39=2|44=50.3|54=1|55=HH|150=2|151=100|10=016|
8=FIX.4.2|9=99|35=4|34=34|43=Y|49=SERVER|52=20151116-19:10:54.432|56=CLIENT|122=20151116-19:10:54.432|36=35|123=Y|10=228|
8=FIX.4.2|9=131|35=D|34=35|49=CLIENT|52=20151116-19:10:57.412|56=SERVER|11=2|21=1|38=50|40=2|44=50|54=1|55=HH|60=20151116-19:10:57.411|64=20191212|10=139|
8=FIX.4.2|9=68|35=A|34=36|49=CLIENT|52=20151116-19:12:45.094|56=SERVER|98=0|108=30|10=212|
8=FIX.4.2|9=68|35=A|34=35|49=SERVER|52=20151116-19:12:45.123|56=CLIENT|98=0|108=30|10=204|
8=FIX.4.2|9=131|35=D|34=37|49=CLIENT|52=20151116-19:12:48.095|56=SERVER|11=1|21=1|38=50|40=2|44=50|54=1|55=HH|60=20151116-19:12:48.077|64=20191212|10=159|
8=FIX.4.2|9=68|35=A|34=38|49=CLIENT|52=20151116-19:14:40.867|56=SERVER|98=0|108=30|10=219|
8=FIX.4.2|9=68|35=A|34=38|49=SERVER|52=20151116-19:14:40.895|56=CLIENT|98=0|108=30|10=220|
8=FIX.4.2|9=66|35=2|34=39|49=CLIENT|52=20151116-19:14:40.902|56=SERVER|7=36|16=0|10=091|
8=FIX.4.2|9=155|35=8|34=36|43=Y|49=SERVER|52=20151116-19:14:40.918|56=CLIENT|122=20151116-19:12:48.137|6=0|14=100|17=1|20=0|37=1|38=38|39=1|44=50|54=1|55=HH|150=1|151=100|10=179|
8=FIX.4.2|9=170|35=8|34=37|43=Y|49=SERVER|52=20151116-19:14:40.919|56=CLIENT|122=20151116-19:12:48.139|6=0|14=100|17=1|20=0|37=1|38=12|39=2|44=49.76125648950384|54=1|55=HH|150=2|151=100|10=200|
8=FIX.4.2|9=99|35=4|34=38|43=Y|49=SERVER|52=20151116-19:14:40.921|56=CLIENT|122=20151116-19:14:40.921|36=39|123=Y|10=240|
8=FIX.4.2|9=131|35=D|34=40|49=CLIENT|52=20151116-19:14:43.864|56=SERVER|11=2|21=1|38=30|40=2|44=50|54=1|55=HH|60=20151116-19:14:43.864|64=20191212|10=154|
8=FIX.4.2|9=68|35=A|34=41|49=CLIENT|52=20151116-19:20:34.418|56=SERVER|98=0|108=30|10=205|
8=FIX.4.2|9=68|35=A|34=43|49=SERVER|52=20151116-19:20:34.459|56=CLIENT|98=0|108=30|10=212|
8=FIX.4.2|9=66|35=2|34=42|49=CLIENT|52=20151116-19:20:34.471|56=SERVER|7=39|16=0|10=089|
8=FIX.4.2|9=154|35=8|34=39|43=Y|49=SERVER|52=20151116-19:20:34.490|56=CLIENT|122=20151116-19:14:43.881|6=0|14=100|17=1|20=0|37=1|38=6|39=1|44=50|54=1|55=HH|150=1|151=100|10=126|
8=FIX.4.2|9=170|35=8|34=40|43=Y|49=SERVER|52=20151116-19:20:34.491|56=CLIENT|122=20151116-19:14:43.882|6=0|14=100|17=1|20=0|37=1|38=22|39=1|44=49.60928816119347|54=1|55=HH|150=1|151=100|10=187|
8=FIX.4.2|9=169|35=8|34=41|43=Y|49=SERVER|52=20151116-19:20:34.492|56=CLIENT|122=20151116-19:14:43.882|6=0|14=100|17=1|20=0|37=1|38=1|39=1|44=49.87577361846883|54=1|55=HH|150=1|151=100|10=162|
8=FIX.4.2|9=169|35=8|34=42|43=Y|49=SERVER|52=20151116-19:20:34.493|56=CLIENT|122=20151116-19:14:43.883|6=0|14=100|17=1|20=0|37=1|38=1|39=2|44=49.99674063870292|54=1|55=HH|150=2|151=100|10=158|
8=FIX.4.2|9=99|35=4|34=43|43=Y|49=SERVER|52=20151116-19:20:34.494|56=CLIENT|122=20151116-19:20:34.494|36=44|123=Y|10=242|
8=FIX.4.2|9=134|35=D|34=43|49=CLIENT|52=20151116-19:20:37.408|56=SERVER|11=1|21=1|38=50|40=2|44=49.99|54=1|55=HH|60=20151116-19:20:37.401|64=20101212|10=045|
8=FIX.4.2|9=68|35=A|34=44|49=CLIENT|52=20151116-19:22:45.662|56=SERVER|98=0|108=30|10=213|
8=FIX.4.2|9=68|35=A|34=46|49=SERVER|52=20151116-19:22:45.684|56=CLIENT|98=0|108=30|10=219|
8=FIX.4.2|9=66|35=2|34=45|49=CLIENT|52=20151116-19:22:45.691|56=SERVER|7=44|16=0|10=096|
8=FIX.4.2|9=168|35=8|34=44|43=Y|49=SERVER|52=20151116-19:22:45.709|56=CLIENT|122=20151116-19:20:37.426|6=0|14=100|17=1|20=0|37=1|38=27|39=1|44=49.666820036697|54=1|55=HH|150=1|151=100|10=101|
8=FIX.4.2|9=170|35=8|34=45|43=Y|49=SERVER|52=20151116-19:22:45.710|56=CLIENT|122=20151116-19:20:37.427|6=0|14=100|17=1|20=0|37=1|38=23|39=2|44=49.76159908873862|54=1|55=HH|150=2|151=100|10=202|
8=FIX.4.2|9=99|35=4|34=46|43=Y|49=SERVER|52=20151116-19:22:45.712|56=CLIENT|122=20151116-19:22:45.712|36=47|123=Y|10=242|
8=FIX.4.2|9=134|35=D|34=46|49=CLIENT|52=20151116-19:22:48.662|56=SERVER|11=2|21=1|38=50|40=2|44=49.99|54=1|55=HH|60=20151116-19:22:48.662|64=20101212|10=068|
8=FIX.4.2|9=68|35=A|34=47|49=CLIENT|52=20151116-19:23:21.742|56=SERVER|98=0|108=30|10=210|
8=FIX.4.2|9=68|35=A|34=51|49=SERVER|52=20151116-19:23:21.746|56=CLIENT|98=0|108=30|10=209|
8=FIX.4.2|9=66|35=2|34=48|49=CLIENT|52=20151116-19:23:21.749|56=SERVER|7=47|16=0|10=101|
8=FIX.4.2|9=169|35=8|34=47|43=Y|49=SERVER|52=20151116-19:23:21.751|56=CLIENT|122=20151116-19:22:48.682|6=0|14=100|17=1|20=0|37=1|38=2|39=1|44=49.67702240467182|54=1|55=HH|150=1|151=100|10=143|
8=FIX.4.2|9=170|35=8|34=48|43=Y|49=SERVER|52=20151116-19:23:21.752|56=CLIENT|122=20151116-19:22:48.683|6=0|14=100|17=1|20=0|37=1|38=16|39=1|44=49.33928433872087|54=1|55=HH|150=1|151=100|10=202|
8=FIX.4.2|9=170|35=8|34=49|43=Y|49=SERVER|52=20151116-19:23:21.753|56=CLIENT|122=20151116-19:22:48.685|6=0|14=100|17=1|20=0|37=1|38=19|39=1|44=48.95197879418377|54=1|55=HH|150=1|151=100|10=226|
8=FIX.4.2|9=169|35=8|34=50|43=Y|49=SERVER|52=20151116-19:23:21.754|56=CLIENT|122=20151116-19:22:48.686|6=0|14=100|17=1|20=0|37=1|38=13|39=2|44=49.3486927416461|54=1|55=HH|150=2|151=100|10=153|
8=FIX.4.2|9=99|35=4|34=51|43=Y|49=SERVER|52=20151116-19:23:21.755|56=CLIENT|122=20151116-19:23:21.755|36=52|123=Y|10=238|
8=FIX.4.2|9=133|35=D|34=49|49=CLIENT|52=20151116-19:23:24.741|56=SERVER|11=3|21=1|38=40|40=2|44=49.9|54=1|55=HH|60=20151116-19:23:24.740|64=20121212|10=000|
8=FIX.4.2|9=68|35=A|34=50|49=CLIENT|52=20151116-19:23:54.508|56=SERVER|98=0|108=30|10=210|
8=FIX.4.2|9=68|35=A|34=54|49=SERVER|52=20151116-19:23:54.512|56=CLIENT|98=0|108=30|10=209|
8=FIX.4.2|9=66|35=2|34=51|49=CLIENT|52=20151116-19:23:54.515|56=SERVER|7=52|16=0|10=088|
8=FIX.4.2|9=170|35=8|34=52|43=Y|49=SERVER|52=20151116-19:23:54.517|56=CLIENT|122=20151116-19:23:24.745|6=0|14=100|17=2|20=0|37=2|38=36|39=1|44=49.31614607626208|54=1|55=HH|150=1|151=100|10=185|
8=FIX.4.2|9=169|35=8|34=53|43=Y|49=SERVER|52=20151116-19:23:54.518|56=CLIENT|122=20151116-19:23:24.758|6=0|14=100|17=2|20=0|37=2|38=4|39=2|44=48.97963060725395|54=1|55=HH|150=2|151=100|10=166|
8=FIX.4.2|9=99|35=4|34=54|43=Y|49=SERVER|52=20151116-19:23:54.518|56=CLIENT|122=20151116-19:23:54.518|36=55|123=Y|10=250|
8=FIX.4.2|9=131|35=D|34=52|49=CLIENT|52=20151116-19:23:57.506|56=SERVER|11=4|21=1|38=30|40=2|44=50|54=1|55=HH|60=20151116-19:23:57.506|64=20121212|10=148|
